:020000040800F2
:1000000038F4012069630008990500089B05000881
:100010009D0500089F050008A105000800000000DC
:10002000000000000000000000000000D5020008F1
:10003000A3050008000000002903000885610008EE
:1000400083630008836300088363000883630008F8
:1000500083630008836300088363000883630008E8
:1000600083630008836300088363000883630008D8
:100070008363000883630008955C00086F5C0008D8
:1000800083630008836300088363000883630008B8
:1000900083630008836300088363000883630008A8
:1000A0008363000883630008836300088363000898
:1000B00083630008C96000081F8C00088363000880
:1000C0008363000883630008836300088363000878
:1000D00083630008016300088363000883630008EA
:1000E0008363000883630008836300088363000858
:1000F0008363000883630008836300088363000848
:1001000083630008B3560008836300088363000814
:100110008363000883630008F360000883630008BA
:100120008363000883630008836300088363000817
:100130008363000883630008836300088363000807
:1001400083630008836300088363000883630008F7
:1001500083630008836300088363000883630008E7
:1001600083630008836300088363000883630008D7
:1001700083630008836300088363000883630008C7
:10018000836300088363000800F002F800F08AF837
:100190000AA090E8000C82448344AAF10107DA45E2
:1001A00001D100F07FF8AFF2090EBAE80F0013F0AA
:1001B000010F18BFFB1A43F001031847C4410200A6
:1001C000E44102000A444FF0000C10F8013B13F028
:1001D000070408BF10F8014B1D1108BF10F8015BA0
:1001E000641E05D010F8016B641E01F8016BF9D193
:1001F00013F0080F1EBF10F8014BAD1C0C1B09D1EA
:100200006D1E58BF01F801CBFAD505E014F8016B5B
:1002100001F8016B6D1EF9D59142D6D370470000ED
:100220000023002400250026103A28BF78C1FBD8FF
:10023000520728BF30C148BF0B6070476E291EF0BF
:10024000F38470291EF0C08569291EF0B1846429E9
:100250001EF0AE8475291EF0AB846F291EF0568502
:1002600078291EF0A4850368DB0928BF41F08001CE
:1002700063291FF05A8273291FF05F82E3291FF060
:100280007D82002070471FB51FF0D6FF1FF0DCFCF9
:100290000400002000211FF0F1FC401C60601FBD25
:1002A00010B510BD1FF0AAFC1146FFF7ECFF00F0DF
:1002B0006DF81FF0CDFC03B4FFF7F2FF03BC05F0AF
:1002C000C5FF000030BF72B6704762B6704780F35A
:1002D000088870472A4B19680868B0E8F04F80F327
:1002E0000988BFF36F8F4FF0000080F311887047CB
:1002F0000000000006480068006880F3088862B6C5
:1003000061B6BFF34F8FBFF36F8F00DF00BF00BF39
:1003100008ED00E0DFF80C00016841F470010160B5
:10032000704700BF88ED00E0EFF30980BFF36F8FE7
:10033000134B1A681EF0100F08BF20ED108A20E939
:10034000F04F106008B44FF0500080F31188BFF3F5
:100350004F8FBFF36F8F1CF0CFFD4FF0000080F385
:10036000118808BC19680868B0E8F04F1EF0100F3B
:1003700008BFB0EC108A80F30988BFF36F8F704715
:10038000C0020020EFF30580704700002DE9FE4316
:100390004FF4407006F006F8A82005F0FDFE4FF47B
:1003A000E13005F05BFF42F2CF0442F20F752146C7
:1003B000284605F05DFE2146284605F0AAFE00F01D
:1003C00047FA4E4841685420884700F0E1FD03F0A9
:1003D00099FB03F0BEFC05F0BFFC0021012005F0F5
:1003E00039FD00221146104605F076FD002101205E
:1003F00005F09AFD2821084605F0BBFD3C2005F0DC
:10040000CBFD002008F03AF8022008F037F80BF096
:10041000B9FD3B4801223BA100680AF01DF93A4FA3
:100420004FF4784610243E80384D4FF6FF781DE09B
:1004300037A0CDE900401023C82232211E2003F04E
:1004400037FBC82005F0D9FE4223F02232211E20BE
:10045000CDF8008003F038F9C82005F0CEFED5F8BD
:10046000A402002847D00020C5F8A4020CF062F8CE
:100470000028DDD13E80002528A08DE83100102322
:10048000C82232213C200CF04BF92AA08DE8310023
:100490001023C82246213C200CF042F929A08DE807
:1004A00031001023C8225A213C200CF039F92AA02F
:1004B0008DE831001023C8226E213C200CF030F969
:1004C00029A08DE831001023C82282213C200CF0A5
:1004D00027F92BA08DE831001023C82296213C205B
:1004E0000CF01EF940F2DC5005F087FE00F075F9C3
:1004F0000020BDE8FE830120B6E700009401002043
:10050000ECBF0120303A0000280000200080424269
:10051000466F6E74204572726F7221004578706C60
:100520006F7265722053544D3332BFAAB7A2B0E543
:1005300000000000CAD3C6B5B2A5B7C5C6F7CAB594
:10054000D1E90000D5FDB5E3D4ADD7D340414C4946
:10055000454E54454B00000032303134C4EA37D4A4
:10056000C231C8D5000000004B4559303A4E4558BD
:10057000542020204B4559323A5052455600000035
:100580004B45595F55503A46462020204B4559313E
:10059000A3BA5245570000007047FEE7FEE7FEE7AA
:1005A000FEE770470CB5002254490092019208689A
:1005B00040F4803008604FF4A043086800F4003035
:1005C00001900098401C0090019810B90098984242
:1005D000F3D10868800334D50120019047484030AA
:1005E000026842F0805202604548026842F440428C
:1005F00002604248083002680260026842F4004229
:100600000260026842F4A0520260031F3D4A1A6071
:100610000A6842F080720A600A689201FCD53A4981
:1006200040F205720A60016821F00301016001686F
:1006300041F0020101600168C1F381010229FAD190
:100640000CBD01920CBD314810B5016841F4700138
:1006500001602A48016841F001010160274A002138
:100660000832116002682A4B1A400260031D294AB1
:100670001A60026822F48022026020480C30016077
:10068000FFF790FF21494FF000608039086010BDEE
:1006900070B51A4D083528681F4B204910F00C0022
:1006A00004D05E10042803D0082803D00B601BE0A0
:1006B0000E6019E0114A121D1068C0F380541068D2
:1006C00000F03F0014B1B6FBF0F001E0B3FBF0F036
:1006D00013681268C3F388135843C2F30142521CD3
:1006E0005200B0FBF2F0086028680C4AC0F3031017
:1006F000121D105C0A68C2400A6070BD00380240DA
:100700000070004008544007003C024088ED00E0C3
:10071000FFFFF6FE103000240024F400000000204B
:10072000384C20780128FCD1E0681CF00FFC0CF05C
:10073000CCFD64201CF014FB20780128F1D1206945
:100740001CF004FCE0681CF067FCEAE70CF0B1FB6D
:1007500064201CF005FBF9E72B4C4FF4007529468B
:10076000204605F04AFF64201CF0FAFA294620468C
:1007700005F041FF64201CF0F3FAF0E77CB51DF0B2
:10078000AAFE204803240830CDE90040002340227F
:100790001EA1AFF23B001CF021F91A484FF48075FE
:1007A0000C30CDE9004000232A461BA1AFF26300C4
:1007B0001CF014F913482A461030CDE900400023FC
:1007C00018A1AFF2A3001CF009F91DF09EFE0D4820
:1007D0004068BDE87C401CF02CB91CB514A01EF08C
:1007E00065F908490120091D0023CDE90001020235
:1007F00014A1AFF277001CF0F1F8BDE81C401CF02A
:1008000093BC000014000020001402406C65645F7B
:100810007461736B00000000766964656F5F7461DA
:10082000736B0000617564696F5F7461736B0000C6
:1008300031313131313131313131313131313131A8
:100840003131310073746172745F7461736B0000D5
:100850007CB50121202006F090FA01208DF80400DB
:1008600000228DF8062003218DF80510074D4FF466
:10087000C0648DF8070000946946284605F056FECE
:100880002146284605F0B7FE7CBD0000001402405A
:1008900001B5BDF80000ADF80000BDF800004FF054
:1008A000D841A1F87E0008BD01B5BDF80000ADF843
:1008B0000000BDF800004FF0D841A1F8800008BD4D
:1008C00008B54FF0D840B0F88000ADF80000BDF892
:1008D000000008BD4FF0D84222F87E0F51807047CB
:1008E00010B5FFF7D5FF052005F06FFCBDE81040FF
:1008F000E6E7FE484FF0D8410089A1F87E00704736
:100900004FF0D841A1F880007047C0F34511C20AEA
:10091000C00200EB4110104480B27047401EC0B2CC
:10092000FCD27047F0B5F14D0C460246070AA98883
:100930002846260A4089A1F5C853633B15D0A1F586
:10094000AA43103B4AD0FFF7A3FF3846FFF7ACFF9E
:10095000D0B2FFF7A9FFA889FFF79AFF3046FFF74B
:10096000A3FFE0B2BDE8F0409EE7A97929B3FFF705
:100970008FFF3846FFF798FFD0B2FFF795FF288822
:10098000401EC0F30F20FFF78FFF2878401EC0B233
:10099000FFF78AFFA889FFF77BFF3046FFF784FF48
:1009A000E0B2FFF781FF6888401EC0F30F20FFF719
:1009B0007BFFA878401EC0B2D4E72988891A491E57
:1009C0008AB2FFF765FF0020FFF76EFF0020FFF7F8
:1009D0006BFF100AFFF768FFD0B2D9E7FFF758FFA7
:1009E0003846FFF761FF6889401C80B2FFF750FF6F
:1009F000D0B2FFF759FFA889FFF74AFF3046FFF74B
:100A000053FFA889401C80B2FFF742FFA9E710B549
:100A1000B64C2288824202D962888A4201D80020DC
:100A200010BDFFF77FFFA088A0F5AA4110391BD0A9
:100A30002E20FFF72DFFFFF743FFA188A1F5C85235
:100A4000633AEDD0FFF73CFF0146FFF739FFCAB22A
:100A50004FF6FF7303EA02226FF30A01920A41EA9A
:100A6000421141EAD02010BD4FF43850E1E79F48D1
:100A70008088A0F5AA41103901D0292008E74FF459
:100A80002450FBE799488088A0F5AA41103901D08D
:100A90002820FDE64FF42050FBE770B5934C00236F
:100AA0002146A279898841F66315012A01D01AB13D
:100AB0001BE0A94202D118E0A94216D1082814D29D
:100AC000DFE800F00406080A0C0E101206200CE005
:100AD00007200AE0042008E0052006E0012004E0E9
:100AE000002002E0032000E00220082812D2DFE804
:100AF00000F0110406080A0C0E1080230AE04023BF
:100B000008E0C02306E0202304E0602302E0A023E5
:100B100000E0E02345F21056B14202D14FF45850A4
:100B200000E03620A1F51342413A03D0A1F5EE4290
:100B3000893A01D143F008031946FFF7CBFEA2889A
:100B4000AA420ED0980606D520886188884208D22D
:100B50002180608005E021886088814201D9208061
:100B600061806089B24240D1FFF792FE0020FFF71A
:100B70009BFE6089401C80B2FFF78AFE0020FFF7D1
:100B800093FE6089801C80B2FFF782FE2088401EA1
:100B9000C0F30F20FFF788FE6089C01C80B2FFF70A
:100BA00077FE2078401EC0B2FFF77EFEA089FFF7D7
:100BB0006FFE0020FFF778FEA089401C80B2FFF78F
:100BC00067FE0020FFF770FEA089801C80B2FFF74F
:100BD0005FFE6088401EC0F30F20FFF765FEA0890E
:100BE000C01C80B2FFF754FE21E0FFF751FE002049
:100BF000FFF75AFE0020FFF757FE2088401EC0F383
:100C00000F20FFF751FE2078401EC0B2FFF74CFEC8
:100C1000A089FFF73DFE0020FFF746FE0020FFF70A
:100C200043FE6088401EC0F30F20FFF73DFEA07812
:100C3000BDE87040401EC0B236E600B5FFF772FE58
:100C4000FFF757FE2A484FF0D8410088A1F88000EE
:100C500000BDF0B5254E0D460446070AB188304662
:100C6000A1F5AA4340894FEA152C103B0FD0A1F5FE
:100C7000C853633B24D0FFF70BFE3846FFF714FE42
:100C8000E0B2FFF711FEB089FFF702FE3BE0FFF78D
:100C9000FFFD3846FFF708FE7089401C80B2FFF761
:100CA000F7FDE0B2FFF700FEB089FFF7F1FD604607
:100CB000FFF7FAFDB089401C80B2FFF7E9FD25E09F
:100CC000B17919B93188091B491E8CB2FFF7E0FDD3
:100CD000270A3846FFF7E8FDE0B2FFF7E5FD3846A2
:100CE000FFF7E2FDE0B2FFF7DFFD03E0380300208D
:100CF00028000020B089FFF7CBFD6046FFF7D4FD48
:100D0000E8B2FFF7D1FD6046FFF7CEFDE8B2FFF78E
:100D1000CBFD4FF0D840318920F87E1F4280F0BDD6
:100D200010B50246BE20FFF7B3FD0520FFF7BCFD5E
:100D300010461FF070F99FEDFE1B53EC112B1FF0B6
:100D40007DF91FF03BF980B2FFF7AEFD0120FFF700
:100D5000ABFDFF20FFF7A8FD0020FFF7A5FDBDE8D4
:100D600010400020A0E52DE9F04FF34B2C27194649
:100D700098712B2589884FF4305A4FF4285B4FF433
:100D8000487441F6631E2A264FF0F00845F21059C8
:100D90004FF4A07C4FF4F072C0B1A3F800C0A3F8E8
:100DA0000280494532D1A3F808A0A3F80AB028026E
:100DB00098811C805A80A1F5A640103802D11A8073
:100DC000A3F802C0BDE8F04F002066E6A3F800805B
:100DD000A3F802C0494507D1A3F808A0A3F80AB0B8
:100DE0004FF42C50988104E071451F8104D15D813E
:100DF0009E811A805C8001E05E819D81A1F5A64004
:100E00001038DFD1A3F800C05A80DBE71F815E8174
:100E100071459D81CDD0CEE72DE9F0470546994635
:100E20001044C54E401E01EB09030C461FFA80FC1E
:100E3000B18830465B1E4089A1F5C8589FB24FEA81
:100E4000142AB8F1630825D196F80680B8F1010F8D
:100E500020D031889FB2891A491B8DB2FFF718FD47
:100E6000280AFFF721FDE8B2FFF71EFD2A44521EB3
:100E7000C2F30F20FFF718FDD0B2FFF715FDB089C0
:100E8000FFF706FD5046FFF70FFDE0B2FFF70CFD40
:100E9000380A27E004EB0908A8F101082A44C8F33E
:100EA0000729521EC2F307282A0AA1F5AA43103BBC
:100EB0001ED0FFF7EDFC1046FFF7F6FCE8B2FFF797
:100EC000F3FC4046FFF7F0FC0CF0FF00FFF7ECFCF2
:100ED000B089FFF7DDFC5046FFF7E6FCE0B2FFF714
:100EE000E3FC4846FFF7E0FCF8B2BDE8F047DBE47E
:100EF000FFF7CEFC1046FFF7D7FC7089401C80B28C
:100F0000FFF7C6FCE8B2FFF7CFFC7089801C80B207
:100F1000FFF7BEFC4046FFF7C7FC7089C01C80B2DB
:100F2000FFF7B6FC0CF0FF00FFF7BEFCB089FFF73F
:100F3000AFFC5046FFF7B8FCB089401C80B2FFF709
:100F4000A7FCE0B2FFF7B0FCB089801C80B2FFF7CD
:100F50009FFC4846FFF7A8FCB089C01C80B2FFF791
:100F600097FCC1E770B574490646002408884D888F
:100F7000214645432046FFF7D5FCFFF7BAFC4FF06A
:100F8000D84002E0A0F88060641CAC42FAD370BD87
:100F90002DE9F04FA1B0002401217A201F9405F023
:100FA000ECFE0121084605F0FCFE01258DF80450F9
:100FB0004FF400408DF80640022600908DF8056041
:100FC0008DF8075069465D4805F0B0FA8DF8046069
:100FD0004CF233708DF806400327DFF864810090EF
:100FE0008DF805708DF807506946404605F09EFA69
:100FF0008DF804604FF680708DF80640DFF844915C
:1010000000908DF805708DF807506946484605F048
:101010008DFA8DF8046028038DF8064000908DF855
:1010200005708DF807506946474805F07FFA8DF83E
:10103000046028038DF8064000908DF805708DF847
:1010400007506946414805F071FA0C2200214046DC
:1010500005F0E0FA0C220121404605F0DBFA0C22F3
:101060000421404605F0D6FA0C220521404605F041
:10107000D1FA0C220821404605F0CCFA0C220921B5
:10108000404605F0C7FA0C220A21404605F0C2FA94
:101090000C220E21404605F0BDFA0C220F214046DD
:1010A00005F0B8FA0C220721484605F0B3FA0C22E5
:1010B0000821484605F0AEFA0C220921484605F001
:1010C000A9FA0C220A21484605F0A4FA0C220B21A9
:1010D000484605F09FFA0C221146484605F09AFA58
:1010E0000C220D21484605F095FA0C220E214846A7
:1010F00005F090FA0C220F21484605F08BFA0C22DD
:101100001146114805F086FA0C2211460F4805F0E9
:1011100081FA0F20CDE911043C20CDE91304159488
:1011200009201694CDE917400820CDE919400FE0B9
:101130006666666666660440380300200004024066
:10114000000C02400010024000140240001802404F
:101150001B941C940620CDE902041D941E941020BB
:10116000CDE9044006940002CDE90A4008940794B2
:101170008000CDE90C40099411A8CDE90E4018A8D3
:10118000109002A805F07FFA0121062005F0F4FA7C
:10119000322005F032F8D320FFF77AFBFFF790FBFF
:1011A000FE4CA080FFF78CFB21468880FFF788FB70
:1011B0004FF6FF7101EA002021468880FFF780FB8F
:1011C000214645F21037898845F2105608432146DA
:1011D00041F663188880A0F5134147F289754FF4F2
:1011E000704A4FF2010B413976D00420FFF750FBD3
:1011F000FFF766FBA080FFF763FBA080FFF760FBB3
:101200004FF6FF7C0CEA0020A080FFF759FBA18875
:101210000843A0F50541A08052397DD0A8425BD09B
:10122000D420FFF735FBFFF74BFBA080FFF748FB0F
:10123000A080FFF745FB0CEA0020A080FFF740FBF1
:10124000A1880843A080B84246D055215046FFF7F8
:1012500041FBAA215846FFF73DFB52214FF2020005
:10126000FFF738FB08214FF20300FFF733FB0121A2
:101270004FF20400FFF72EFB4FF44540FFF708FB49
:10128000FFF71EFB0CEA0020A080E1464CF2015063
:10129000FFF7FEFAFFF714FBA1880843A0800520A2
:1012A00004F0ABFFA088B0F5004F45D0B04213D09A
:1012B000A120FFF7EDFAFFF703FBA080FFF700FB8B
:1012C00009EA0020A080FFF7FBFAA1880843A0F5F7
:1012D000AE41A08061392CD0A088A0F513414139DE
:1012E00007D0A84205D0B84203D0B04201D0404553
:1012F00028D14FF02040D0F81C1121F00F01C0F888
:101300001C11D0F81C1121F47061C0F81C11D0F828
:101310001C1141F0030100E009E0C0F81C11A18894
:10132000A942D0F81C1109D141F4407108E0A58010
:10133000DFE7A4F80480DCE7A680DAE741F4007177
:10134000C0F81C11A18896A01DF0B0FBA088A0F5E4
:10135000134141397ED0A8427DD11120FFF798FA80
:10136000782004F04AFF3620FFF792FA0020FFF7BA
:101370009BFA3A20FFF78CFA0520FFF795FAB22086
:10138000FFF786FA0C20FFF78FFA0C20FFF78CFA94
:101390000020FFF789FA3320FFF786FA3320FFF7A2
:1013A00083FAB720FFF774FA3520FFF77DFABB20E8
:1013B000FFF76EFA3220FFF777FAC020FFF768FADE
:1013C0000C20FFF771FAC220FFF762FA0120FFF745
:1013D0006BFAC320FFF75CFA1020FFF765FAC42010
:1013E000FFF756FA2020FFF75FFAC620FFF750FA02
:1013F0000F20FFF759FAD020FFF74AFAA420FFF791
:1014000053FAA120FFF750FAE020FFF741FAD0206D
:10141000FFF74AFA0020FFF747FA0220FFF744FAE5
:101420000720FFF741FA0A20FFF73EFA2820FFF7CE
:101430003BFA3220FFF738FA4420FFF735FA422012
:10144000FFF732FA0620FFF72FFA0E20FFF72CFAEB
:10145000122001E056E072E1FFF726FA1420FFF7B0
:1014600023FA1720FFF720FAE120FFF711FAD02026
:10147000FFF71AFA0020FFF717FA0220FFF714FA15
:101480000720FFF711FA0A20FFF70EFA2820FFF7CE
:101490000BFA3120FFF708FA5420FFF705FA47202E
:1014A000FFF702FA0E20FFF7FFF91C20FFF7FCF907
:1014B0001720FFF7F9F91B20FFF7F6F91E20FFF7B9
:1014C000F3F92A20FFF7E4F90020FFF7EDF90020F7
:1014D000FFF7EAF90020FFF7E7F9EF20FFF7E4F95B
:1014E0002B20FFF7D5F90020FFF7DEF90020FFF7EA
:1014F000DBF90120FFF7D8F93F20FFF7D5F92920C4
:1015000002F017B8CF20FFF7C3F90020FFF7CCF99E
:10151000C120FFF7C9F93020FFF7C6F9ED20FFF72A
:10152000B7F96420FFF7C0F90320FFF7BDF91220D7
:10153000FFF7BAF98120FFF7B7F9E820FFF7A8F91C
:101540008520FFF7B1F91020FFF7AEF97A20FFF7F9
:10155000ABF9CB20FFF79CF93920FFF7A5F92C2038
:10156000FFF7A2F90020FFF79FF93420FFF79CF95D
:101570000220FFF799F9F720FFF78AF92020FFF7FB
:1015800093F9EA20FFF784F90020FFF78DF9002096
:10159000FFF78AF9C020FFF77BF909E03803002044
:1015A000204C43442049443A25780D0A00000000AD
:1015B0001B20FFF779F9C120FFF76AF90120FFF737
:1015C00073F9C520FFF764F93020FFF76DF930207B
:1015D000FFF76AF9C720FFF75BF9B720FFF764F957
:1015E0003620FFF755F94820FFF75EF93A20FFF75C
:1015F0004FF95520FFF758F9B120FFF749F90020BE
:10160000FFF752F91A20FFF74FF9B620FFF740F91C
:101610000A20FFF749F9A220FFF746F9F220FFF769
:1016200037F90020FFF740F92620FFF731F90120B4
:10163000FFF73AF9E020FFF72BF90F20FFF734F915
:101640002A20FFF731F92820FFF72EF90820FFF7AD
:101650002BF90E20FFF728F90820FFF725F9542071
:10166000FFF722F9A920FFF71FF94320FFF71CF924
:101670000A20FFF719F90F20FFF716F90020FFF7EE
:1016800013F90020FFF710F90020FFF70DF90020F3
:10169000FFF70AF9E120FFF7FBF80020FFF704F954
:1016A0001520FFF701F91720FFF7FEF80720FFF7D5
:1016B000FBF81120FFF7F8F80620FFF7F5F82B20CC
:1016C000FFF7F2F85620FFF7EFF83C20FFF7ECF8B1
:1016D0000520FFF7E9F81020FFF7E6F80F20FFF7E5
:1016E000E3F83F20FFF7E0F83F20FFF7DDF80F2099
:1016F000FFF7DAF82B20FFF7CBF80020FFF7D4F83C
:101700000020FFF7D1F80120FFF7CEF83F20FFF7C8
:10171000CBF82A20FFF7BCF80020FFF7C5F800201F
:10172000FFF7C2F80020FFF7BFF8EF20FFF7BCF883
:101730001120FFF7ADF8782004F05FFDDFE6B84236
:101740007ED1ED20FFF7A4F80120FFF7ADF8FE20D1
:10175000FFF7AAF8EE20FFF79BF8DE20FFF7A4F8CA
:101760002120FFF7A1F8F120FFF792F80120FFF701
:101770009BF8DF20FFF78CF81020FFF795F8C420C6
:10178000FFF786F88F20FFF78FF8C620FFF780F865
:101790000020FFF789F8E220FFF786F8E220FFF744
:1017A00083F8E220FFF780F8BF20FFF771F8AA2046
:1017B000FFF77AF8B020FFF76BF80D20FFF774F809
:1017C0000020FFF771F80D20FFF76EF80020FFF7FB
:1017D0006BF81120FFF768F80020FFF765F8192073
:1017E000FFF762F80020FFF75FF82120FFF75CF8B1
:1017F0000020FFF759F82D20FFF756F80020FFF7DB
:1018000053F83D20FFF750F80020FFF74DF85D201A
:10181000FFF74AF80020FFF747F85D20FFF744F88C
:101820000020FFF741F8B120FFF732F88020FFF7E2
:101830003BF80020FFF738F88B20FFF735F800E081
:10184000FDE30020FFF730F89620FFF72DF8002089
:10185000FFF72AF8B220FFF71BF80020FFF724F863
:101860000020FFF721F80220FFF71EF80020FFF705
:101870001BF80320FFF718F80020FFF715F8B32036
:10188000FFF706F80020FFF70FF80020FFF70CF82D
:101890000020FFF709F80020FFF706F80020FFF707
:1018A00003F80020FFF700F80020FEF7FDFF0020FE
:1018B000FEF7FAFF0020FEF7F7FF0020FEF7F4FF27
:1018C0000020FEF7F1FF0020FEF7EEFF0020FEF7FC
:1018D000EBFF0020FEF7E8FF0020FEF7E5FF002009
:1018E000FEF7E2FF0020FEF7DFFF0020FEF7DCFF3F
:1018F0000020FEF7D9FF0020FEF7D6FF0020FEF7FC
:10190000D3FF0020FEF7D0FF0020FEF7CDFF002020
:10191000FEF7CAFFB420FEF7BBFF8B20FEF7C4FF23
:101920000020FEF7C1FF9620FEF7BEFF0020FEF765
:10193000BBFFA120FEF7B8FF0020FEF7B5FFB520E2
:10194000FEF7A6FF0220FEF7AFFF0020FEF7ACFF78
:101950000320FEF7A9FF0020FEF7A6FF0420FEF7F4
:10196000A3FF0020FEF7A0FFB620FEF791FF0020A6
:10197000FEF79AFF0020FEF797FFB720FEF788FFDB
:101980000020FEF791FF0020FEF78EFF3F20FEF7BC
:101990008BFF0020FEF788FF5E20FEF785FF00200A
:1019A000FEF782FF6420FEF77FFF0020FEF77CFF3A
:1019B0008C20FEF779FF0020FEF776FFAC20FEF7C3
:1019C00073FF0020FEF770FFDC20FEF76DFF0020A4
:1019D000FEF76AFF7020FEF767FF0020FEF764FF46
:1019E0009020FEF761FF0020FEF75EFFEB20FEF780
:1019F0005BFF0020FEF758FFDC20FEF755FF0020BC
:101A0000FEF752FFB820FEF743FF0020FEF74CFF21
:101A10000020FEF749FF0020FEF746FF0020FEF7FA
:101A200043FF0020FEF740FF0020FEF73DFF0020AF
:101A3000FEF73AFF0020FEF737FFBA20FEF728FF37
:101A40002420FEF731FF0020FEF72EFF0020FEF7D6
:101A50002BFF0020FEF728FFC120FEF719FF2020F2
:101A6000FEF722FF0020FEF71FFF5420FEF71CFFA9
:101A70000020FEF719FFFF20FEF716FF0020FEF7FB
:101A800013FFC220FEF704FF0A20FEF70DFF00201F
:101A9000FEF70AFF0420FEF707FF0020FEF704FF11
:101AA000C320FEF7F5FE3C20FEF7FEFE0020FEF709
:101AB000FBFE3A20FEF7F8FE0020FEF7F5FE392087
:101AC000FEF7F2FE0020FEF7EFFE3720FEF7ECFEF9
:101AD0000020FEF7E9FE3C20FEF7E6FE0020FEF7C0
:101AE000E3FE3620FEF7E0FE0020FEF7DDFE3220AA
:101AF000FEF7DAFE0020FEF7D7FE2F20FEF7D4FE19
:101B00000020FEF7D1FE2C20FEF7CEFE0020FEF7CF
:101B1000CBFE2920FEF7C8FE0020FEF7C5FE2620DA
:101B2000FEF7C2FE0020FEF7BFFE2420FEF7BCFE3B
:101B30000020FEF7B9FE2420FEF7B6FE0020FEF7D7
:101B4000B3FE2320FEF7B0FE0020FEF7ADFE3C20E2
:101B5000FEF7AAFE0020FEF7A7FE3620FEF7A4FE41
:101B60000020FEF7A1FE3220FEF79EFE0020FEF7C9
:101B70009BFE2F20FEF798FE0020FEF795FE2C20FE
:101B8000FEF792FE0020FEF78FFE2920FEF78CFE66
:101B90000020FEF789FE2620FEF786FE0020FEF7D5
:101BA00083FE2420FEF780FE0020FEF77DFE242029
:101BB000FEF77AFE0020FEF777FE2320FEF774FE84
:101BC0000020FEF771FEC420FEF762FE6220FEF7E1
:101BD0006BFE0020FEF768FE0520FEF765FE002084
:101BE000FEF762FE8420FEF75FFE0020FEF75CFE3B
:101BF000F020FEF759FE0020FEF756FE1820FEF7F3
:101C000053FE0020FEF750FEA420FEF74DFE0020FC
:101C1000FEF74AFE1820FEF747FE0020FEF744FEBE
:101C20005020FEF741FE0020FEF73EFE0C20FEF79E
:101C30003BFE0020FEF738FE1720FEF735FE0020A1
:101C4000FEF732FE9520FEF72FFE0020FEF72CFE59
:101C5000F320FEF729FE0020FEF726FEE620FEF721
:101C600023FE0020FEF720FEC520FEF711FE3220E5
:101C7000FEF71AFE0020FEF717FE4420FEF714FEC2
:101C80000020FEF711FE6520FEF70EFE0020FEF795
:101C90000BFE7620FEF708FE0020FEF705FE8820EA
:101CA000FEF702FE0020FEF7FFFDC620FEF7F0FD66
:101CB0002020FEF7F9FD0020FEF7F6FD1720FEF7C5
:101CC000F3FD0020FEF7F0FD0120FEF7EDFD002002
:101CD000FEF7EAFDC720FEF7DBFD0020FEF7E4FD7E
:101CE0000020FEF7E1FD0020FEF7DEFD0020FEF7FC
:101CF000DBFDC820FEF7CCFD0020FEF7D5FD00205F
:101D0000FEF7D2FD0020FEF7CFFD0020FEF7CCFD50
:101D1000C920FEF7BDFD0020FEF7C6FD0020FEF73E
:101D2000C3FD0020FEF7C0FD0020FEF7BDFD002032
:101D3000FEF7BAFD0020FEF7B7FD0020FEF7B4FD68
:101D40000020FEF7B1FD0020FEF7AEFD0020FEF7FB
:101D5000ABFD0020FEF7A8FD0020FEF7A5FD00204A
:101D6000FEF7A2FD0020FEF79FFD0020FEF79CFD80
:101D70000020FEF799FDE020FEF78AFD1620FEF711
:101D800093FD0020FEF790FD1C20FEF78DFD002046
:101D9000FEF78AFD2120FEF787FD0020FEF784FD77
:101DA0003620FEF781FD0020FEF77EFD4620FEF77F
:101DB0007BFD0020FEF778FD5220FEF775FD002028
:101DC000FEF772FD6420FEF76FFD0020FEF76CFD4C
:101DD0007A20FEF769FD0020FEF766FD8B20FEF7F6
:101DE00063FD0020FEF760FD9920FEF75DFD0020F9
:101DF000FEF75AFDA820FEF757FD0020FEF754FD20
:101E0000B920FEF751FD0020FEF74EFDC420FEF77D
:101E10004BFD0020FEF748FDCA20FEF745FD0020DF
:101E2000FEF742FDD220FEF73FFD0020FEF73CFD0D
:101E3000D920FEF739FD0020FEF736FDE020FEF741
:101E400033FD0020FEF730FDF320FEF72DFD0020CE
:101E5000FEF72AFDE120FEF71BFD1620FEF724FD0C
:101E60000020FEF721FD1C20FEF71EFD0020FEF7DE
:101E70001BFD2220FEF718FD0020FEF715FD362081
:101E8000FEF712FD0020FEF70FFD4520FEF70CFDCA
:101E90000020FEF709FD5220FEF706FD0020FEF7A8
:101EA00003FD6420FEF700FD0020FEF7FDFC7A2014
:101EB000FEF7FAFC0020FEF7F7FC8B20FEF7F4FC9F
:101EC0000020FEF7F1FC9920FEF7EEFC0020FEF763
:101ED000EBFCA820FEF7E8FC0020FEF7E5FCB920AB
:101EE000FEF7E2FC0020FEF7DFFCC420FEF7DCFC7E
:101EF0000020FEF7D9FCCA20FEF7D6FC0020FEF732
:101F0000D3FCD220FEF7D0FC0020FEF7CDFCD82079
:101F1000FEF7CAFC0020FEF7C7FCE020FEF7C4FC79
:101F20000020FEF7C1FCF320FEF7BEFC0020FEF708
:101F3000BBFCE220FEF7ACFC0520FEF7B5FC002060
:101F4000FEF7B2FC0B20FEF7AFFC0020FEF7ACFC66
:101F50001B20FEF7A9FC0020FEF7A6FC3420FEF7AC
:101F6000A3FC0020FEF7A0FC4420FEF79DFC00200F
:101F7000FEF79AFC4F20FEF797FC0020FEF794FC3A
:101F80006120FEF791FC0020FEF78EFC7920FEF721
:101F90008BFC0020FEF788FC8820FEF785FC0020E3
:101FA000FEF782FC9720FEF77FFC0020FEF77CFC0A
:101FB000A620FEF779FC0020FEF776FCB720FEF79E
:101FC00073FC0020FEF770FCC220FEF76DFC0020C1
:101FD000FEF76AFCC720FEF767FC0020FEF764FCF2
:101FE000D120FEF761FC0020FEF75EFCD620FEF754
:101FF0005BFC0020FEF758FCDD20FEF755FC0020BE
:10200000FEF752FCF320FEF74FFC0020FEF74CFCDD
:10201000E320FEF73DFC0520FEF746FC0020FEF71E
:1020200043FC0A20FEF740FC0020FEF73DFC1C208C
:10203000FEF73AFC0020FEF737FC332000E0FAE21E
:10204000FEF732FC0020FEF72FFC4420FEF72CFCAC
:102050000020FEF729FC5020FEF726FC0020FEF7AA
:1020600023FC6220FEF720FC0020FEF71DFC7820F8
:10207000FEF71AFC0020FEF717FC8820FEF714FC80
:102080000020FEF711FC9720FEF70EFC0020FEF763
:102090000BFCA620FEF708FC0020FEF705FCB7208D
:1020A000FEF702FC0020FEF7FFFBC220FEF7FCFB60
:1020B0000020FEF7F9FBC720FEF7F6FB0020FEF735
:1020C000F3FBD120FEF7F0FB0020FEF7EDFBD5205F
:1020D000FEF7EAFB0020FEF7E7FBDD20FEF7E4FB5E
:1020E0000020FEF7E1FBF320FEF7DEFB0020FEF709
:1020F000DBFBE420FEF7CCFB0120FEF7D5FB002044
:10210000FEF7D2FB0120FEF7CFFB0020FEF7CCFB51
:102110000220FEF7C9FB0020FEF7C6FB2A20FEF7CF
:10212000C3FB0020FEF7C0FB3C20FEF7BDFB0020F8
:10213000FEF7BAFB4B20FEF7B7FB0020FEF7B4FB1F
:102140005D20FEF7B1FB0020FEF7AEFB7420FEF72A
:10215000ABFB0020FEF7A8FB8420FEF7A5FB0020C8
:10216000FEF7A2FB9320FEF79FFB0020FEF79CFBEF
:10217000A220FEF799FB0020FEF796FBB320FEF7A6
:1021800093FB0020FEF790FBBE20FEF78DFB0020A6
:10219000FEF78AFBC420FEF787FB0020FEF784FBD6
:1021A000CD20FEF781FB0020FEF77EFBD320FEF75B
:1021B0007BFB0020FEF778FBDD20FEF775FB00209F
:1021C000FEF772FBF320FEF76FFB0020FEF76CFBBF
:1021D000E520FEF75DFB0020FEF766FB0020FEF722
:1021E00063FB0020FEF760FB0020FEF75DFB022092
:1021F000FEF75AFB0020FEF757FB2920FEF754FBA1
:102200000020FEF751FB3C20FEF74EFB0020FEF7BE
:102210004BFB4B20FEF748FB0020FEF745FB5D2003
:10222000FEF742FB0020FEF73FFB7420FEF73CFB6D
:102230000020FEF739FB8420FEF736FB0020FEF776
:1022400033FB9320FEF730FB0020FEF72DFBA2208E
:10225000FEF72AFB0020FEF727FBB320FEF724FB46
:102260000020FEF721FBBE20FEF71EFB0020FEF73C
:102270001BFBC420FEF718FB0020FEF715FBCD204A
:10228000FEF712FB0020FEF70FFBD320FEF70CFB3E
:102290000020FEF709FBDC20FEF706FB0020FEF71E
:1022A00003FBF320FEF700FB0020FEF7FDFAE6201B
:1022B000FEF7EEFA1120FEF7F7FA0020FEF7F4FA27
:1022C0003420FEF7F1FA0020FEF7EEFA5620FEF772
:1022D000EBFA0020FEF7E8FA7620FEF7E5FA002098
:1022E000FEF7E2FA7720FEF7DFFA0020FEF7DCFACD
:1022F0006620FEF7D9FA0020FEF7D6FA8820FEF70E
:10230000D3FA0020FEF7D0FA9920FEF7CDFA00208C
:10231000FEF7CAFABB20FEF7C7FA0020FEF7C4FAA0
:102320009920FEF7C1FA0020FEF7BEFA6620FEF7FC
:10233000BBFA0020FEF7B8FA5520FEF7B5FA0020E8
:10234000FEF7B2FA5520FEF7AFFA0020FEF7ACFA1E
:102350004520FEF7A9FA0020FEF7A6FA4320FEF773
:10236000A3FA0020FEF7A0FA4420FEF79DFA002011
:10237000FEF79AFAE720FEF78BFA3220FEF794FA7E
:102380000020FEF791FA5520FEF78EFA0020FEF7A6
:102390008BFA7620FEF788FA0020FEF785FA662091
:1023A000FEF782FA0020FEF77FFA6720FEF77CFA3C
:1023B0000020FEF779FA6720FEF776FA0020FEF794
:1023C00073FA8720FEF770FA0020FEF76DFA992065
:1023D000FEF76AFA0020FEF767FABB20FEF764FA00
:1023E0000020FEF761FA9920FEF75EFA0020FEF762
:1023F0005BFA7720FEF758FA0020FEF755FA4420E2
:10240000FEF752FA0020FEF74FFA5620FEF74CFA7C
:102410000020FEF749FA2320FEF746FA0020FEF7D7
:1024200043FA3320FEF740FA0020FEF73DFA45203C
:10243000FEF73AFA0020FEF737FAE820FEF728FA0E
:102440000020FEF731FA0020FEF72EFA9920FEF761
:102450002BFA0020FEF728FA8720FEF725FA002045
:10246000FEF722FA8820FEF71FFA0020FEF71CFA7A
:102470007720FEF719FA0020FEF716FA6620FEF71D
:1024800013FA0020FEF710FA8820FEF70DFA00205C
:10249000FEF70AFAAA20FEF707FA0020FEF704FA70
:1024A000BB20FEF701FA0020FEF7FEF99920FEF7A7
:1024B000FBF90020FEF7F8F96620FEF7F5F9002099
:1024C000FEF7F2F95520FEF7EFF90020FEF7ECF9E0
:1024D0005520FEF7E9F90020FEF7E6F94420FEF763
:1024E000E3F90020FEF7E0F94420FEF7DDF90020D3
:1024F000FEF7DAF95520FEF7D7F90020FEF7D4F9F8
:10250000E920FEF7C5F9AA20FEF7CEF90020FEF774
:10251000CBF90020FEF7C8F90020FEF7C5F900202E
:10252000FEF7B6F9AA20FEF7BFF9CF20FEF7B0F903
:102530000020FEF7B9F90020FEF7B6F90020FEF7FB
:10254000B3F90020FEF7B0F90020FEF7ADF9002046
:10255000FEF7AAF90020FEF7A7F90020FEF7A4F97C
:102560000020FEF7A1F90020FEF79EF90020FEF7FB
:102570009BF90020FEF798F90020FEF795F900205E
:10258000FEF792F90020FEF78FF90020FEF78CF994
:102590000020FEF789F9F020FEF77AF90020FEF717
:1025A00083F95020FEF780F90020FEF77DF9002026
:1025B000FEF77AF90020FEF777F9F320FEF768F9C5
:1025C0000020FEF771F9F920FEF762F90620FEF708
:1025D0006BF91020FEF768F92920FEF765F9002055
:1025E000FEF762F93A20FEF753F95520FEF75CF941
:1025F0001120FEF74DF9642003F0FFFD2920FEF7BE
:1026000047F93520FEF744F90020FEF74DF9512037
:10261000FEF73EF9FF20FEF747F95320FEF738F9A1
:102620002C20FEF741F95520FEF732F98220FEF703
:102630003BF92C20FDE3B0427ED155215346504654
:10264000FEF748F9AA215C465846FEF743F94FF2D7
:10265000020552212846FEF73DF96E1C082130463E
:10266000FEF738F9AF1C01213846FEF733F90D218A
:102670004FF43040FEF72EF90D214BF20100FEF72A
:1026800029F90D214BF20200FEF724F94FF4364CE4
:1026900034216046FEF71EF934214BF20160FEF74B
:1026A00019F934214BF20260FEF714F94FF4314866
:1026B0000D214046FEF70EF94BF201190D21484657
:1026C000FEF708F90D214BF20210FEF703F94FF463
:1026D000374A34215046FEF7FDF84BF2017B342196
:1026E0005846FEF7F7F834214BF20270FEF7F2F885
:1026F00000214FF43240FEF7EDF800214BF20120AB
:10270000FEF7E8F800214BF20220FEF7E3F824215F
:102710004FF43840FEF7DEF824214BF60100FEF7B7
:10272000D9F824214BF60200FEF7D4F801214FF42A
:102730003F40FEF7CFF800E0FEE30F214FF43340B7
:10274000FEF7C8F80F214BF20130FEF7C3F80F2156
:102750004BF20230FEF7BEF834214FF43940FEF759
:10276000B9F834214BF60110FEF7B4F834214BF6DA
:102770000210FEF7AFF808214FF43540FEF7AAF833
:1027800008214BF20150FEF7A5F808214BF2025048
:10279000FEF7A0F803214FF44240FEF79BF82421F6
:1027A0004FF43A40FEF796F824214BF60120FEF74D
:1027B00091F824214BF60220FEF78CF800214FF40B
:1027C0003C40FEF787F878214BF60140FEF782F88F
:1027D00000214BF60240FEF77DF800214FF43D400A
:1027E000FEF778F878214BF60150FEF773F80021D8
:1027F0004BF60250FEF76EF800214FF43E40FEF714
:1028000069F864214BF60160FEF764F800214FF48B
:102810005140FEF75FF833214DF20110FEF75AF8F0
:1028200000214DF20210FEF755F834214DF203104D
:10283000FEF750F800214DF20410FEF74BF83A2154
:102840004DF20510FEF746F800214DF20610FEF796
:1028500041F84A214DF20710FEF73CF800214DF2F5
:102860000810FEF737F85C214DF20910FEF732F838
:1028700000214DF20A10FEF72DF881214DF20B10C8
:10288000FEF728F800214DF20C10FEF723F8A621E0
:102890004DF20D10FEF71EF800214DF20E10FEF75E
:1028A00019F8E5214DF20F10FEF714F801214DF251
:1028B0001010FEF70FF813214DF21110FEF70AF871
:1028C00001214DF21210FEF705F854214DF21310BC
:1028D000FEF700F801214DF21410FDF7FBFF8221F5
:1028E0004DF21510FDF7F6FF01214DF21610FDF720
:1028F000F1FFCA214DF21710FDF7ECFF02214DF256
:102900001810FDF7E7FF00214DF21910FDF7E2FF67
:1029100002214DF21A10FDF7DDFF01214DF21B10CF
:10292000FDF7D8FF02214DF21C10FDF7D3FF342133
:102930004DF21D10FDF7CEFF02214DF21E10FDF7E6
:10294000C9FF67214DF21F10FDF7C4FF02214DF2B0
:102950002010FDF7BFFF84214DF22110FDF7BAFFD3
:1029600002214DF22210FDF7B5FFA4214DF22310F4
:10297000FDF7B0FF02214DF22410FDF7ABFFB721A8
:102980004DF22510FDF7A6FF02214DF22610FDF7AE
:10299000A1FFCF214DF22710FDF79CFF02214DF240
:1029A0002810FDF797FFDE214DF22910FDF792FF69
:1029B00002214DF22A10FDF78DFFF2214DF22B106E
:1029C000FDF788FF02214DF22C10FDF783FFFE2159
:1029D0004DF22D10FDF77EFF03214DF22E10FDF775
:1029E00079FF10214DF22F10FDF774FF03214DF2F6
:1029F0003010FDF76FFF33214DF23110FDF76AFF04
:102A000003214DF23210FDF765FF6D214DF23310B9
:102A1000FDF760FF00214FF45240FDF75BFF3321CB
:102A20004DF20120FDF756FF00214DF20220FDF787
:102A300051FF34214DF20320FDF74CFF00214DF2F0
:102A40000420FDF747FF3A214DF20520FDF742FF34
:102A500000214DF20620FDF73DFF4A214DF20720EF
:102A6000FDF738FF00214DF20820FDF733FF5C2110
:102A70004DF20920FDF72EFF00214DF20A20FDF74F
:102A800029FF81214DF20B20FDF724FF00214DF29B
:102A90000C20FDF71FFFA6214DF20D20FDF71AFFB8
:102AA00000214DF20E20FDF715FFE5214DF20F201C
:102AB000FDF710FF01214DF21020FDF70BFF132150
:102AC0004DF21120FDF706FF01214DF21220FDF716
:102AD00001FF54214DF21320FDF7FCFE01214DF2C0
:102AE0001420FDF7F7FE82214DF21520FDF7F2FECE
:102AF00001214DF21620FDF7EDFECA214DF21720FF
:102B0000FDF7E8FE02214DF21820FDF7E3FE00215B
:102B10004DF21920FDF7DEFE02214DF21A20FDF7DD
:102B2000D9FE01214DF21B20FDF7D4FE02214DF20A
:102B30001C20FDF7CFFE34214DF21D20FDF7CAFE0B
:102B400002214DF21E20FDF7C5FE67214DF21F2028
:102B5000FDF7C0FE02214DF22020FDF7BBFE8421CF
:102B60004DF22120FDF7B6FE02214DF22220FDF7A5
:102B7000B1FEA4214DF22320FDF7ACFE02214DF25F
:102B80002420FDF7A7FEB7214DF22520FDF7A2FE78
:102B900002214DF22620FDF79DFECF214DF2272088
:102BA000FDF798FE02214DF22820FDF793FEDE216D
:102BB0004DF22920FDF78EFE02214DF22A20FDF76D
:102BC00089FEF2214DF22B20FDF784FE02214DF209
:102BD0002C20FDF77FFEFE214DF22D20FDF77AFE21
:102BE00003214DF22E20FDF775FE10214DF22F200E
:102BF000FDF770FE03214DF23020FDF76BFE33210F
:102C00004DF23120FDF766FE03214DF23220FDF733
:102C100061FE6D214DF23320FDF75CFE00214FF483
:102C20005340FDF757FE33214DF20130FDF752FEC0
:102C300000214DF20230FDF74DFE34214DF20330FC
:102C4000FDF748FE00214DF20430FDF743FE3A2126
:102C50004DF20530FDF73EFE00214DF20630FDF746
:102C600039FE4A214DF20730FDF734FE00214DF2C6
:102C70000830FDF72FFE5C214DF20930FDF72AFEEA
:102C800000214DF20A30FDF725FE81214DF20B3077
:102C9000FDF720FE00214DF20C30FDF71BFEA621B2
:102CA0004DF20D30FDF716FE00214DF20E30FDF70E
:102CB00011FEE5214DF20F30FDF70CFE01214DF222
:102CC0001030FDF707FE13214DF21130FDF702FE23
:102CD00001214DF21230FDF7FDFD54214DF213306C
:102CE000FDF7F8FD01214DF21430FDF7F3FD8221CF
:102CF0004DF21530FDF7EEFD01214DF21630FDF7D6
:102D0000E9FDCA214DF21730FDF7E4FD02214DF235
:102D10001830FDF7DFFD00214DF21930FDF7DAFD27
:102D200002214DF21A30FDF7D5FD01214DF21B3085
:102D3000FDF7D0FD02214DF21C30FDF7CBFD342113
:102D40004DF21D30FDF7C6FD02214DF21E30FDF79C
:102D5000C1FD67214DF21F30FDF7BCFD02214DF290
:102D60002030FDF7B7FD84214DF22130FDF7B2FD93
:102D700002214DF22230FDF7ADFDA4214DF22330AA
:102D8000FDF7A8FD02214DF22430FDF7A3FDB72188
:102D90004DF22530FDF79EFD02214DF22630FDF764
:102DA00099FDCF214DF22730FDF794FD02214DF220
:102DB0002830FDF78FFDDE214DF22930FDF78AFD29
:102DC00002214DF22A30FDF785FDF2214DF22B3024
:102DD000FDF780FD02214DF22C30FDF77BFDFE2139
:102DE0004DF22D30FDF776FD03214DF22E30FDF72B
:102DF00071FD10214DF22F30FDF76CFD03214DF2D6
:102E00003030FDF767FD33214DF23130FDF762FDC3
:102E100003214DF23230FDF75DFD6D214DF233306F
:102E2000FDF758FD00214FF45440FDF753FD3321C9
:102E300000E07EE34DF20140FDF74CFD00214DF234
:102E40000240FDF747FD34214DF20340FDF742FDFE
:102E500000214DF20440FDF73DFD3A214DF20540C1
:102E6000FDF738FD00214DF20640FDF733FD4A2104
:102E70004DF20740FDF72EFD00214DF20840FDF711
:102E800029FD5C214DF20940FDF724FD00214DF2A2
:102E90000A40FDF71FFD81214DF20B40FDF71AFDA1
:102EA00000214DF20C40FDF715FDA6214DF20D401D
:102EB000FDF710FD00214DF20E40FDF70BFDE52161
:102EC0004DF20F40FDF706FD01214DF21040FDF7D8
:102ED00001FD13214DF21140FDF7FCFC01214DF2E3
:102EE0001240FDF7F7FC54214DF21340FDF7F2FCC0
:102EF00001214DF21440FDF7EDFC82214DF2154009
:102F0000FDF7E8FC01214DF21640FDF7E3FCCA2174
:102F10004DF21740FDF7DEFC02214DF21840FDF79F
:102F2000D9FC00214DF21940FDF7D4FC02214DF2ED
:102F30001A40FDF7CFFC00E0FEE201214DF21B40FC
:102F4000FDF7C8FC02214DF21C40FDF7C3FC342103
:102F50004DF21D40FDF7BEFC02214DF21E40FDF773
:102F6000B9FC67214DF21F40FDF7B4FC02214DF280
:102F70002040FDF7AFFC84214DF22140FDF7AAFC73
:102F800002214DF22240FDF7A5FCA4214DF2234081
:102F9000FDF7A0FC02214DF22440FDF79BFCB72178
:102FA0004DF22540FDF796FC02214DF22640FDF73B
:102FB00091FCCF214DF22740FDF78CFC02214DF210
:102FC0002840FDF787FCDE214DF22940FDF782FC09
:102FD00002214DF22A40FDF77DFCF2214DF22B40FB
:102FE000FDF778FC02214DF22C40FDF773FCFE2129
:102FF0004DF22D40FDF76EFC03214DF22E40FDF702
:1030000069FC10214DF22F40FDF764FC03214DF2C5
:103010003040FDF75FFC33214DF23140FDF75AFCA3
:1030200003214DF23240FDF755FC6D214DF2334046
:10303000FDF750FC00214FF45540FDF74BFC3321C8
:103040004DF20150FDF746FC00214DF20250FDF714
:1030500041FC34214DF20350FDF73CFC00214DF2C0
:103060000450FDF737FC3A214DF20550FDF732FCD4
:1030700000214DF20650FDF72DFC4A214DF207507C
:10308000FDF728FC00214DF20850FDF723FC5C21E0
:103090004DF20950FDF71EFC00214DF20A50FDF7DC
:1030A00019FC81214DF20B50FDF714FC00214DF26B
:1030B0000C50FDF70FFCA6214DF20D50FDF70AFC58
:1030C00000214DF20E50FDF705FCE5214DF20F50A9
:1030D000FDF700FC01214DF21050FDF7FBFB132121
:1030E0004DF21150FDF7F6FB01214DF21250FDF7A4
:1030F000F1FB54214DF21350FDF7ECFB01214DF291
:103100001450FDF7E7FB82214DF21550FDF7E2FB6D
:1031100001214DF21650FDF7DDFBCA214DF217508B
:10312000FDF7D8FB02214DF21850FDF7D3FB00212B
:103130004DF21950FDF7CEFB02214DF21A50FDF76A
:10314000C9FB01214DF21B50FDF7C4FB02214DF2DA
:103150001C50FDF7BFFB34214DF21D50FDF7BAFBAB
:1031600002214DF21E50FDF7B5FB67214DF21F50B5
:10317000FDF7B0FB02214DF22050FDF7ABFB84219F
:103180004DF22150FDF7A6FB02214DF22250FDF732
:10319000A1FBA4214DF22350FDF79CFB02214DF22F
:1031A0002450FDF797FBB7214DF22550FDF792FB18
:1031B00002214DF22650FDF78DFBCF214DF2275015
:1031C000FDF788FB02214DF22850FDF783FBDE213D
:1031D0004DF22950FDF77EFB02214DF22A50FDF7FA
:1031E00079FBF2214DF22B50FDF774FB02214DF2D9
:1031F0002C50FDF76FFBFE214DF22D50FDF76AFBC1
:1032000003214DF22E50FDF765FB10214DF22F509A
:10321000FDF760FB03214DF23050FDF75BFB3321DE
:103220004DF23150FDF756FB03214DF23250FDF7C0
:1032300051FB6D214DF23350FDF74CFB00214FF453
:103240005640FDF747FB33214DF20160FDF742FB8D
:1032500000214DF20260FDF73DFB34214DF2036089
:10326000FDF738FB00214DF20460FDF733FB3A21F6
:103270004DF20560FDF72EFB00214DF20660FDF7D3
:1032800029FB4A214DF20760FDF724FB00214DF296
:103290000860FDF71FFB5C214DF20960FDF71AFB8A
:1032A00000214DF20A60FDF715FB81214DF20B6004
:1032B000FDF710FB00214DF20C60FDF70BFBA62182
:1032C0004DF20D60FDF706FB00214DF20E60FDF79B
:1032D00001FBE5214DF20F60FDF7FCFA01214DF2F3
:1032E0001060FDF7F7FA13214DF21160FDF7F2FAC5
:1032F00001214DF21260FDF7EDFA54214DF21360F9
:10330000FDF7E8FA01214DF21460FDF7E3FA82219E
:103310004DF21560FDF7DEFA01214DF21660FDF762
:10332000D9FACA214DF21760FDF7D4FA02214DF205
:103330001860FDF7CFFA00214DF21960FDF7CAFAC7
:1033400002214DF21A60FDF7C5FA01214DF21B6012
:10335000FDF7C0FA02214DF21C60FDF7BBFA3421E3
:103360004DF21D60FDF7B6FA02214DF21E60FDF729
:10337000B1FA67214DF21F60FDF7ACFA02214DF260
:103380002060FDF7A7FA84214DF22160FDF7A2FA33
:1033900002214DF22260FDF79DFAA4214DF2236037
:1033A000FDF798FA02214DF22460FDF793FAB72158
:1033B0004DF22560FDF78EFA02214DF22660FDF7F1
:1033C00089FACF214DF22760FDF784FA02214DF2F0
:1033D0002860FDF77FFADE214DF22960FDF77AFAC9
:1033E00002214DF22A60FDF775FAF2214DF22B60B1
:1033F000FDF770FA02214DF22C60FDF76BFAFE2109
:103400004DF22D60FDF766FA03214DF22E60FDF7B7
:1034100061FA10214DF22F60FDF75CFA03214DF2A5
:103420003060FDF757FA33214DF23160FDF752FA63
:1034300003214DF23260FDF74DFA6D214DF23360FC
:10344000FDF748FA55211846FDF744FAAA2120460F
:10345000FDF740FA52212846FDF73CFA0821304694
:10346000FDF738FA00213846FDF734FACC21404602
:10347000FDF730FA00214846FDF72CFA0521604699
:10348000FDF728FA70215046FDF724FA70215846BE
:10349000FDF720FA01214FF43840FDF71BFA032114
:1034A0004BF60100FDF716FA03214BF60200FDF77B
:1034B00011FA03214BF60300FDF70CFA02214FF439
:1034C0003C40FDF707FA00214BF60140FDF702FAF8
:1034D00000214BF60240FDF7FDF9D0214FF44940A1
:1034E000FDF7F8F902214CF60110FDF7F3F9502130
:1034F0004CF60210FDF7EEF950214CF60310FDF7E3
:10350000E9F950214CF60410FDF7E4F900214FF4DD
:103510005450FDF7DFF955214FF46850FDF7DAF903
:103520004FF48850FDF7B4F9782002F04EFE4FF4C6
:103530002450FDF7ADF9B9E04045FCD1E220FDF79C
:10354000A7F91D20FDF7B0F90220FDF7ADF9042021
:10355000FDF7AAF9642002F038FEE020FDF798F9A3
:103560000120FDF7A1F90A2002F047FEE020FDF757
:103570008FF90320FDF798F90C2002F03EFE0120A0
:10358000FDF786F90A2002F038FEE620FDF780F903
:103590002F20FDF789F9FF20FDF786F9FF20FDF7C1
:1035A00083F9B020FDF774F92020FDF77DF90020A4
:1035B000FDF77AF90320FDF777F940F21F30FDF7A8
:1035C00073F90120FDF770F940F2DF10FDF76CF997
:1035D0000020FDF769F9B420FDF75AF90420FDF742
:1035E00063F940F21F40FDF75FF90020FDF75CF939
:1035F0002E20FDF759F90020FDF756F90020FDF7C0
:1036000053F90020FDF750F90020FDF74DF9B620E1
:10361000FDF73EF90220FDF747F94FF40370FDF77F
:1036200043F90020FDF740F91720FDF73DF915207B
:10363000FDF73AF90020FDF737F90020FDF734F9DE
:10364000F020FDF725F90320FDF72EF92920FDF7DD
:103650001FF9D020FDF71CF90020FDF725F9BE2049
:10366000FDF716F90520FDF71FF9FE20FDF71CF9FF
:103670000120FDF719F90020FDF716F90020FDF7EC
:1036800013F90020FDF710F9B820FDF701F9032028
:10369000FDF70AF90120FDF707F9BA20FDF7F8F860
:1036A0000120FDF701F96420FDF73AFB0020FDF74A
:1036B0005AFBF8490120C1F8BC024FF6FF70FDF734
:1036C00051FC21B0BDE8F08F2DE9F0418046A2EB1E
:1036D0000800401C1F460C4685B24FF0D84C069E91
:1036E0000FE021464046FDF71DF9FDF702F90020E5
:1036F00003E0ACF88060401C80B2A842F9D3641C9F
:10370000A4B2BC42EDD9BDE8F0812DE9F043814679
:10371000A2EB0900401C0E4685B2981B401C87B2E4
:1037200000244FF0D848DDF81CC015E0301981B2F4
:103730004846FDF7F7F8FDF7DCF80020414607E0C2
:1037400004FB05023CF81220A1F88020401C80B246
:10375000A842F5D3641CA4B2BC42E7D3BDE8F08311
:103760002DE9FC4F0026A2EB000C81465F1A701E6B
:1037700035468846BCF1000F02DD4FF0010102E042
:1037800003D14FF00001009102E0CCF1000C009059
:10379000002F02DD4FF0010002E003D14FF00000E6
:1037A000834602E08346C7F10007BC4501DD64465D
:1037B00000E03C46601C4FF0000A019014E01FFA44
:1037C00088F11FFA89F0FDF738FA66443D44A642B5
:1037D00002DD0099361B8944A54201DD2D1BD8442A
:1037E0000AF101001FFA80FA01998A45E7DDBDE878
:1037F000FC8FF0B51C4615460E4607460B46FFF7F4
:10380000AFFF3A46234631461046FFF7A9FF23464D
:103810002A4619463846FFF7A3FF2A462346314673
:10382000BDE8F04010469BE72DE9F84F84460024A0
:10383000154603200F46A0EB45064AE0781B81B2EF
:103840000CEB040900901FFA89F0FDF7F6F9A7EBDD
:10385000040B0CEB05081FFA8BF11FFA88F0FDF73B
:10386000ECF907EB040A1FFA8AF11FFA88F0FDF75A
:10387000E4F907EB05081FFA88F11FFA89F0FDF754
:10388000DCF9ACEB04091FFA88F11FFA89F0FDF7A7
:10389000D4F9ACEB05081FFA8AF11FFA88F0FDF79E
:1038A000CCF9009881B21FFA89F0FDF7C6F91FFA2A
:1038B0008BF11FFA88F0FDF7C0F9641C002E03DAC3
:1038C00006EB8406B61D04E0601B06EB80066D1E49
:1038D0000A36AC42B2DDBDE8F88F2DE9F84F8246DA
:1038E0001F460C468B46580700D0012000EBD7003E
:1038F000790810FB01F0203AC0B202F0FF0900265F
:10390000009041E00C2F10D0102F12D0182FE2D1D0
:10391000614909EBC90001EB80004FF00008855DAB
:1039200028060AD55D4802880BE009EB49005C498E
:10393000F1E75C4901EB0910EFE70A9828B957480D
:10394000428821465046FDF784F96806050E564820
:10395000641CA4B24088A042BDD9A4EB0B00B842BD
:1039600009D10AF101001FFA80FA4F485C4601882C
:103970005145B0D906E008F1010000F0FF08B8F1A8
:10398000080FCDD3761CF6B200988642BAD3A2E7D0
:103990000346012000E05843491EC9B2FBD27047DC
:1039A0002DE9FF4F81B00027DDF838B01D46924663
:1039B00080463C46B9464FEA5B0627E0281B401E7E
:1039C000C1B20A20FFF7E4FFBAFBF0F00A21B0FB16
:1039D000F1F201FB120027B9691E8C4201DA48B1ED
:1039E00001273030C2B206FB048080B25B46CDF8BE
:1039F000009006E006FB048080B25B462022CDF8F2
:103A000000900299FFF769FF641CE4B2AC42D5D381
:103A100005B057E62DE9FF4F81B08046DDF83CA0A8
:103A20000E984FF000091F4693464C460AF00105D8
:103A300046082BE0381B401EC1B20A20FFF7A8FF42
:103A4000BBFBF0F00A21B0FBF1F201FB1200B9F16F
:103A5000000F05D1791E8C4202DA48B14FF00109FE
:103A60003030C2B206FB048080B200950E9B08E0A5
:103A70005FEA0A6006FB04800E9B80B2009515D5B4
:103A800030220299FFF729FF641CE4B2BC42D1D373
:103A9000BEE7000000804042B00C02082800002071
:103AA0004C020208C0060208380300202022E8E782
:103AB0002DE9F84F044600F0FF0810190D46DDE926
:103AC0000A761FFA80FA58191FFA80F94FF0000B96
:103AD00011E0544502D3E819444685B24D450FD252
:103AE0003B4629462046CDF800B0FFF7F6FE04EB32
:103AF000570084B2761C3278A2F120005E28E8D903
:103B0000E9E600001CB50121112003F036F91C2064
:103B1000009000208DF8040003208DF8050001249A
:103B20008DF807406946354802F000FD02208DF807
:103B3000070000946946324802F0F8FC1CBD2DE9EC
:103B4000F041304C2E4F2D4D012608B1267001E07A
:103B50002078A0B11021284602F039FDB0B108212B
:103B6000284602F034FD88B10421284602F02FFDDA
:103B700060B10121384602F02AFD012806D010214B
:103B8000284602F024FD012824D035E00A2002F066
:103B900034FB002020701021284602F018FD80B16F
:103BA0000821284602F013FD70B10421284602F0D6
:103BB0000EFD58B10121384602F009FD012807D059
:103BC0001AE00120BDE8F0810220FBE70320F9E7BD
:103BD0000420F7E70821284602F0F9FC01280BD160
:103BE0000421284602F0F3FC012805D101213846C2
:103BF00002F0EDFC00B926700020E3E7001002405F
:103C0000000002402C00002070B5404C0546022107
:103C1000204604F080F90028F9D02946204604F017
:103C20004DF90121204604F076F90028F9D020460C
:103C300004F042F9C0B270BD2DE9F043012187B014
:103C4000084603F09AF84FF480590121484603F0E2
:103C5000BCF802278DF8187000248DF81A40032054
:103C60008DF81900DFF8A8803826012505968DF813
:103C70001B5005A9404602F059FC0522032140468D
:103C800002F0C8FC05220421404602F0C3FC0522D4
:103C90001146404602F0BEFC0121484603F0C7F839
:103CA0000021484603F0C3F8ADF800404FF482709D
:103CB000ADF80200ADF808506802ADF80C60ADF840
:103CC0000440ADF80A00ADF80E4007200F4CADF8E7
:103CD0001000ADF806706946204603F0F5FF01219B
:103CE000204604F085F8FF20FFF78EFF07B0BDE8FF
:103CF000F08301460548028822F0380202800288DB
:103D00000A430280012104F073B800000030014032
:103D10000004024070B5D14D0024C5F8B84290208F
:103D200005F52E75FFF770FF0020FFF76DFF0020EF
:103D3000FFF76AFF0020FFF767FFFF20FFF764FF30
:103D400044EA0024FF20FFF75FFF204301212960A0
:103D500070BD7CB50121022003F00FF80121402045
:103D600003F00BF84FF48040012400908DF80440DC
:103D700000208DF8060003208DF805008DF807401F
:103D80006946B74802F0D2FB8020B64D00906946E4
:103D9000284602F0CBFB8021284602F02CFCAF48DD
:103DA000C0F8B842FFF748FF0820FFF7A2FFFFF76F
:103DB000B1FFAD4908807CBD10B5A84C0020C4F807
:103DC000B802052004F52E74FFF71EFFFF20FFF751
:103DD0001BFF0121216010BD70B5A04C00210546DC
:103DE000C4F8B812012004F52E74FFF70DFF284621
:103DF000FFF70AFF0120206070BD10B5974C00202E
:103E0000C4F8B802062004F52E74FFF7FDFE012069
:103E1000206010BD10B5914C0020C4F8B8020420F9
:103E200004F52E74FFF7F0FE0120206010BD2DE98F
:103E3000F0418A4F0646002015460C46C7F8B802E6
:103E40000320FFF7E1FEC4F30740FFF7DDFEC4F3F4
:103E50000720FFF7D9FEE0B2FFF7D6FE002405E009
:103E6000FF20FFF7D1FE3055641CA4B2AC42F7D35B
:103E70000120C7F8B802BDE8F08110B5FFF79CFF3C
:103E8000C007FBD110BD2DE9F04115460C46064692
:103E9000FFF7B3FF714F0020C7F8B8020220FFF709
:103EA000B3FEC4F30740FFF7AFFEC4F30720FFF7EC
:103EB000ABFEE0B2FFF7A8FE002404E0305DFFF7A0
:103EC000A3FE641CA4B2AC42F8D30120C7F8B80228
:103ED000BDE8F041D1E72DE9F0410746C8B2C0F591
:103EE00080740E461546A24200D814464FF48078DE
:103EF000224631463846FFF7C6FFA542BBD0281BF5
:103F00002744264485B24446A542F1D82C46EFE723
:103F1000B1E770B50446014654A01AF0C7FD24036A
:103F2000FFF76BFFFFF7A9FF4C4D0020C5F8B80263
:103F3000202005F52E75FFF767FEC4F30740FFF755
:103F400063FEC4F30720FFF75FFEE0B2FFF75CFEFD
:103F500001202860BDE870408FE72DE9F05FC1F3D4
:103F60000B06DFF810810F0BC6F580548A46814698
:103F70001546A24200D8144639038B464FF48052AE
:103F80004046FFF754FF002006E0321818F80210F0
:103F9000FF2903D1401C80B2A042F6D3A04221D217
:103FA0003846FFF7B6FF002006E019F80020831915
:103FB000401C08F8032080B2A042F6D359464FF4C3
:103FC00080524046FFF787FFA5420FD0281BA1442F
:103FD000A244002685B24FF480547F1CA542CBD862
:103FE0002C46C9E7224651464846EBE7BDE8F09F1C
:103FF00010B5FFF702FFFFF740FF184C0020C4F890
:10400000B802C72004F52E74FFF7FEFD01202060E2
:10401000BDE8104031E710B5104C0020C4F8B802DC
:10402000B92004F52E74FFF7EFFD01202060BDE8F4
:104030001040032002F0C9B810B5084C0020C4F8A5
:10404000B802AB2004F52E74FFF7DEFD01202060DE
:10405000BDE81040032002F0B8B8000000804042E4
:1040600000040240001802402E00002066653A2538
:10407000780D0A0046030020FE4900200860091D53
:104080000860091D0860091D0860FA4924310860AC
:10409000091D0860091D0860F64AF74938321160A9
:1040A000111D086070470021012803D010B126219E
:1040B00008467047F14A5070FAE7EE4A121D11683F
:1040C00021F0FF0101431160704710B50446E94833
:1040D0003430016811F0450FFBD0042004F00FF8D4
:1040E00020B1042004F014F8032010BD012004F0D6
:1040F00006F820B1012004F00BF8012010BDDD48C6
:1041000010300068A04201D0102010BD40F2FF50D6
:1041100003F0FEFFD7481430006800F0080010BD1F
:104120002DE9FC5F0024D64F00944FF48068019481
:104130004025C7F81080C7E902540E464FF0080B1F
:104140001021C7E900B1A146384603F053FF102003
:10415000FFF7BBFF002855D1C848AA464D46008945
:10416000000438603720C7E9010AC7E903983846D8
:1041700003F040FF3720FFF7A8FF002842D1411E7F
:1041800007F11400C0E9001B302181600221C0E961
:1041900003150121416103F053FF3320C7F808A044
:1041A000C7E90050C7E90358384603F023FF33201E
:1041B000FFF78BFF050025D1DFF8B882DFF8B49256
:1041C0004FF4001B6F4608F1800809F1340940F2F2
:1041D0002A6AD9F8000010EA0A0F0BD1584603F0FA
:1041E0008EFF0028F5D0D8F8000047F82400641CA2
:1041F000022CEED3082003F082FF28B1082003F040
:1042000087FF0420BDE8FC9F022003F078FF20B167
:10421000022003F07DFF0220F4E7202003F06FFF6F
:1042200020B1202003F074FF0620EBE74FF4007468
:10423000204603F064FF20B1204603F069FF072009
:10424000E0E740F2FF5003F063FF009800BA7060AF
:10425000019800BA30602846D4E72DE9FC410026D9
:1042600000963546019600B1022582481430006858
:10427000800102D50E20BDE8FC81804C6946208972
:1042800080B2FFF74DFF0028F5D10198400322D5F9
:1042900020897B4C00044FF0400820603720C4E99F
:1042A00001084FF480672046C4E9036703F0A2FECB
:1042B0003720FFF70AFF0028DDD10620C4F8088068
:1042C000C4E90050C4E90367204603F093FE0620CA
:1042D000FFF7FBFECFE72520CDE710B56749044681
:1042E00000200978032918D019B1012901D0022929
:1042F00012D1B4F5805F10D0E0B2FFF7AEFF002816
:104300000AD15C49091D0A6822F4C0520A600A6891
:1043100022430A600A680A6010BD272010BD584970
:1043200010B5086007204860402088600020C86001
:104330004FF480600861084603F05CFEBDE8104061
:104340000720C2E62DE9F0474C49DFF834A14FF0D1
:10435000000C0B7880F8563009890AF12C0AA0F875
:104360005410DAF800104FF001090A0E9509057093
:10437000C2F38305457002F0030282700A0CC2701A
:104380000A0A02714171DAF80420110E0C01C2F31D
:10439000074144EA111401F00F08C480C2F3072159
:1043A00080F80880CC094472C1F380148472C1F390
:1043B0004014C472C1F300140473544680F80DC055
:1043C000A468260EC4F30745C4F3072733B1012BB5
:1043D00004D0032B02D0022B30D03EE08907090D18
:1043E000D2B241EA820141EA9612C6F3C2010261E9
:1043F000017506F00701417569098175C5F38201F0
:10440000C175A9074B0F394643EAD1150576AD1C96
:1044100009FA05F3DE17521CA2FB03570CFB0373CA
:1044200002FB063309FA08F2A5FB0267026503FBEB
:10443000027205FB0C22C0E912620EE09106890AA5
:1044400041EA06222A430261521C530BD204C0E9FE
:1044500012234FF4007239460265C1F3801242768E
:1044600089064A0EE1B242EAD11200F81A2F01F091
:104470007F0107E0002C0140FF07C0003000002052
:10448000601300204170DAF80C20110ECB09837004
:10449000C1F34113C370C1F38203037189070B0F8A
:1044A000C2F3074143EA91134371C1F3401383718F
:1044B00080F807C001F001010172C2F30721CB09A6
:1044C0004372C1F380138372C1F34013C372C1F30B
:1044D00000130373C1F38103437301F0030181737C
:1044E000C2F34601C1734B4680F81090FE4A116832
:1044F0000C0E84740C0CC1F3072545EA0424848255
:104500000C0651680D0E44EA0544C1F3074544EA20
:104510000524C1F307252C43C0F8164000F81A1FE4
:1045200091680C0E44700C0CC1F30725240644EA74
:104530000544C9B244EA0124D16844EA11644460E4
:10454000047AC1F3074244EA12140472C1F3072447
:10455000120744EA12524281C1F3460101734373C8
:104560006046BDE8F08710B500244FF48031DF4885
:1045700009E0026812F0450F05D009B1500705D5D2
:10458000032404200CE0491EF3D2F7E7012003F0D6
:10459000B6FD18B10124204603F0BAFD40F2FF50E9
:1045A00003F0B6FD204610BD70B50646CF480D4657
:1045B0000024026812F0450FFBD0042003F09FFD99
:1045C00020B1042003F0A4FD032070BD012003F0FE
:1045D00096FD20B1012003F09BFD012070BDC34872
:1045E00024380068B04212D140F2FF5003F090FD31
:1045F000BE482038026812F4604F03D0900404D5FE
:10460000132070BD100C288007E0500401D5102045
:1046100070BD100401D50F2070BD204670BD2DE97E
:10462000F84F0120ADF8000003F0DEFCC8B3B04F36
:10463000387804287ED0AC4C00253C3C0220E4E8CD
:104640000250C0204FF4806684E86100A648083C10
:104650003C3803F0CFFCFFF786FF002823D1DFF8BA
:104660008CA2AAF1200ADAF800109F480AF1040B84
:104670000160DBF8001041600BF104010968816002
:104680009A4914390968C16038784FF003084FF02F
:10469000400950B1012808D0062806D0022804D0CD
:1046A00011E0FFE72520BDE8F88F84E820038E485D
:1046B000C4E903563C3803F09DFC69460320FFF72C
:1046C00073FF0028EFD1387803280ED1BDF8000021
:1046D000000484E801038448C4E903563C3803F02D
:1046E00089FCFFF740FF0028DDD13878042823D06B
:1046F000BDF80000B860000401C4092001C4C02056
:1047000084E8610078483C3803F074FCFFF72BFF25
:104710000028C8D1DAF80010734810380160DBF8BF
:104720000010416071491839096881606F49143976
:10473000096800E000E0C1600020B4E710B56B49F3
:10474000086810F0450FFBD0042003F0D8FC20B11E
:10475000042003F0DDFC032010BD40F2FF5003F005
:10476000D7FC002010BD10B500244FF480325F4804
:1047700009E0016811F0450F05D00AB1480705D5D9
:104780000324042006E0521EF3D2F7E7480603D5BF
:104790000024402003F0BCFC204610BD70B500256D
:1047A0004FF4803405E0802003F0A9FC08B144B147
:1047B00001E0641EF7D240F2FF5003F0A9FC284646
:1047C00070BD032070BD2DE9F05F002746487621BB
:1047D00054383E460175076047608760C7603C46B5
:1047E0003D46B946B846076103F0DAFB032003F003
:1047F000F7FB3E483038016841F480710160DFF812
:10480000E8A04FF4806BAAF13C0A3748CAF8008050
:10481000CAF80480CAF80880CAE9038B3C3803F060
:10482000E9FBFFF7BBFF28B17F1CFFB24A2FECD397
:10483000BDE8F09F4FF4D570CAF800000820574635
:10484000CAF804004020C7E902080001CAF81000B5
:1048500025483C3803F0CEFBFFF785FF20B92449FB
:1048600001204FF080490870BA4638464146372249
:10487000402780E88600C0F80C801B483901C346F9
:104880003C38CAF8101003F0B5FB3720FFF71DFCC9
:104890004FF6FF7880B35646DFF85090BA464FF493
:1048A000806B0127A9F120093DB354E0554637201C
:1048B000C5E900B04FF48068CAF810800A48C5E91D
:1048C000027B5E463C3803F095FB3720FFF7FDFB8B
:1048D0000028ADD1074949EA010028602920C5E92F
:1048E0000107C5E9036809E09C130020342C01404E
:1048F00030000020000010800BE02AE0FA4803F0AE
:1049000079FBFFF71BFF002892D1F8490E68F50FDD
:10491000641C1DB94FF6FF718C42C7D34FF6FF716F
:104920008C421AD216F0804F82D0022218E0F04852
:1049300086E881040020C6E9030BEB4803F05AFB2C
:10494000FFF7FCFE0028C4D1D9F80010CD0F641C7D
:10495000AAE74445EBD3444501D31B2068E7032273
:10496000E4490A7064E72DE9FE4300250121E2488D
:1049700002F003FA0121CE02304602F026FA0121AC
:10498000304602F054FA4FF4F850009002208DF8AF
:1049900004008DF805000024DFF860938DF80640D0
:1049A00001278DF807706946484601F0BFFD0420D5
:1049B000DFF84C8300906946404601F0B7FD0C22B9
:1049C0000821484601F026FE0C220921484601F044
:1049D00021FE0C220A21484601F01CFE0C220B216C
:1049E000484601F017FE0C221146484601F012FE1F
:1049F0000C220221404601F00DFE0021304602F05B
:104A000016FAFFF739FB31208DF808008DF80940C0
:104A10008DF80A408DF80B7002A801F0C8FCFFF772
:104A2000D2FEB14C503480B9FFF7F9FD68B9204689
:104A3000FFF788FC48B9B4F854000004FFF76FFC96
:104A400018B93046FFF749FC18B1AA49097803297B
:104A50000BD194F8560008B1012800D10225284650
:104A6000FFF72BFB0020FFF71EFBBDE8FE8310B510
:104A7000002003F0B5FA002010BD70B5A14E90B033
:104A800015460446304603F060FC0028FAD1304653
:104A900003F056FB4FF000600090944801A96C3081
:104AA00081E8310000204FF480610490CDE90501D8
:104AB000890007918900CDE908104FF440300A9031
:104AC00004200B9003200C9048020D9080100E9053
:104AD0006946304603F0BCFB2021304603F005FC5C
:104AE0000121304603F0EDFB10B070BD002102E063
:104AF0004008491CC9B20128FAD1084670472DE97F
:104B0000F84F17460A9E05004FF0FF3466D0DFF8D5
:104B1000DCA100200AF1180ACAF80000DFF8D491DD
:104B200099F80010022903D10E02570A47EAC35729
:104B300001466D4801221430A0468160C0E9004161
:104B4000C160C0E9041203F07BFA68480068800184
:104B500001D50E20A7E5701EB0F5006F3ED20642CB
:104B60003CD13046FFF7C2FF00905F4810214FF460
:104B7000806BC0E90061402181600021C0E9031B16
:104B800003F038FA1020FFF7A0FA0028E2D10098CD
:104B9000010155481430C0F80080C0E901610121CD
:104BA000416102214FF00008C0E9031803F048FA00
:104BB0004D481121E0E80271402180E802094A488D
:104BC00003F018FA1120FFF780FA0700C2D199F814
:104BD0000100494620B101285DD083E0262062E52E
:104BE000FBF771FB414EDFF804916C364FF4004B3C
:104BF000DFF8148109F1200940F22A6A10E05846D2
:104C000003F07DFA48B10020316845F82010401CBF
:104C10000828F9D34446203502E0002C78D0641EE1
:104C2000D9F8000010EA0A0FE9D0082003F067FA6B
:104C300018B1082003F06CFA6AE0022003F05FFA72
:104C400020B1022003F064FA02202CE5202003F0BA
:104C500056FA20B1202003F05BFA062023E54FF43A
:104C60000074204603F04BFA38B1204603F050FAA6
:104C7000072018E5306801C501E04FF40014204614
:104C800003F03DFA0028F5D1FBF71FFB40F2FF507F
:104C900003F03EFA26E04046C846C87088700871A6
:104CA00012492831086840F22A3210430860DAF8C5
:104CB000001041F00801CAF80010002231462846D1
:104CC000FFF7DBFE0F494046583900E0641E0A68D2
:104CD000120103D402790AB9C278BAB1C4B1C17859
:104CE00001B1C7783846DEE460130020142C01407F
:104CF0000080FF80300000200C00400000080240CF
:104D0000000C024058640240FFFF7F00002CDDD100
:104D10000420C8E42DE9FF5F82B0DFF8F8B3DDE9D5
:104D200010680299CBF80C10FB49002517464FF08C
:104D3000FF340D609BF80000022803D10602570AD9
:104D400047EAC357DFF8D4A301215046CAF80850F8
:104D5000CAF81410C0E90045CAF80C50A146CAF8B8
:104D6000105003F06DF9EC4818380068800102D546
:104D70000E2006B05CE5701EB0F5006F21D2064231
:104D80001FD13046FFF7B2FE0090E44810211438DE
:104D9000C0E90061402181600021C1604FF4806161
:104DA000016103F027F91020FFF78FF90500E0D12A
:104DB0004046B8F1010F36D900FB06F8B8F1007F84
:104DC00001D32620D5E70098CAF80090010150468B
:104DD0004FF00009C0E901810121CAF81410022135
:104DE000CAE903194D46CD4803F02AF9DFF82CA390
:104DF0001221AAF1140A5046C0E900714021CAE903
:104E000002150901CAF8101003F0F4F81220FFF798
:104E10005CF90500ADD15E469BF8010040F22A3BEB
:104E200010B1012877D0A0E0FBF74DFABA4FD84671
:104E3000543713E04FF4004003F061F958B1F168C2
:104E400000203A6841F82020401C0828F9D320317E
:104E5000B34CF16002E0002C7DD0641EAE480830F7
:104E6000006810EA080FE5D0082003F048F918B1EF
:104E7000082003F04DF96EE0022003F040F920B164
:104E8000022003F045F9022073E7202003F037F9F0
:104E900020B1202003F03CF906206AE74FF40074AB
:104EA000204603F02CF948B1204603F031F90720E1
:104EB0005FE73968F06802C0F06001E04FF4001469
:104EC000204603F01CF90028F3D14FF4807003F062
:104ED00016F9C0B1307818B1012801D0022812D1DA
:104EE00050460C22C0E900924022CAE902298B48B0
:104EF00011011438CAF8101003F07CF80C20FFF7E9
:104F0000E4F80500C0D1FBF7E0F940F2FF5003F0F0
:104F1000FFF82AE0FFE786F803900121B17086F8D8
:104F200004907D481030016841EA0B0101607A4825
:104F3000016841F008010160414600220298FFF734
:104F40009CFD784800E0641E0168090102D4002C31
:104F5000F9D100E00CB904200BE7307910B9F078F2
:104F60000028FAD0F07800B1F578284601E71CB5A2
:104F700004460021674800910191008902046748B6
:104F8000143802600D2242604022C0E90221110162
:104F9000016103F02FF8604908310868019002466A
:104FA00001E00A68019212F0450FFAD0012003F0E7
:104FB000A6F820B1012003F0ABF801201CBD0420AD
:104FC00003F09DF820B1042003F0A2F803201CBDDB
:104FD00051481C3800680D2801D010201CBD40F23B
:104FE000FF5003F095F84C48183800680090C0F363
:104FF0004320207000201CBD2DE9FC5F4FF0000510
:105000000C9F90469B4604008DF800502E46B946F2
:1050100061D0414805604148691E8560C0E90015BE
:105020000121C560C0E9045103F00AF83A48183874
:105030000068800102D50E20BDE8FC9FDFF8D4A0F7
:105040009AF80000022804D107024FEA582040EAEB
:10505000CB58781EB0F5006F3DD207423BD13846A1
:10506000FFF744FDDFF8B4B00190ABF1140B5846E4
:105070001021C0E900714021CBE902150901CBF8EC
:10508000101002F0B7FF1020FFF71FF80028D3D14F
:105090002048DA4600890104CBF800100D2158465B
:1050A000CBF804104021C0E902151C480901AB46A9
:1050B0001438CAF8101002F09DFF0D20FFF705F814
:1050C0000028B9D1144918390868DA464FF0FF357D
:1050D000DFF840B019E02620AEE7BBF808006D1EEF
:1050E00001040E48143801600D2141604021C0E9DF
:1050F000021A0901016102F07DFF0D20FEF7E5FFB4
:10510000002899D1044818380068C0050CD4002D37
:10511000E3D138E0300000202C2C01407413002033
:10512000FFFF7F00006402406DB3FE481821554622
:10513000C0E900814021C0E9021A0901016102F0C1
:1051400059FF1820FEF7C1FF0028C5D18BF8025087
:105150000198DA460201F3484FF0FF3B143029462C
:10516000C0F800B0C0E901720122C160C0E90412B8
:10517000A8465D4602F064FF9AF8010028B1564641
:10518000012863D097E0292056E7FBF79CF8DFF869
:105190009883E54FA8F14C0840F21A6A24E04FF4D6
:1051A000804002F0ACFFE8B1A9EB060020280DD248
:1051B00081074FEA900100D0491C002003E004CC95
:1051C0003A60401C361D8842F9D308E0002054F8AC
:1051D00020103960401C0828F9D3203420366FF0A5
:1051E000404501E08DB36D1ED8F8000010EA0A0FAB
:1051F000D5D0082002F083FF18B1082002F088FF04
:1052000057E0022002F07BFF20B1022002F080FF75
:10521000022011E7102002F072FF20B1102002F0EE
:1052200077FF052008E74FF40074204602F067FF7F
:1052300020B1204602F06CFF0720FDE6FBF745F8A1
:1052400040F2FF5002F064FF35E032E086F8038060
:1052500086F8028086F80480B3484438016840F23A
:105260001A3211430160402239462046FFF705FCFF
:10527000AD485438016841F008010160AB4800E0D6
:105280006D1E0168090102D4002DF9D102E00DB1B3
:10529000584603E0FFF767FB0BE0401E317909B980
:1052A000F17821B128B1F07828B1F078C4E600286F
:1052B000F3D10420C0E640F2FF5002F029FF684617
:1052C000FFF755FE0028A4D19DF800100729F6D05D
:1052D0000629F4D0B0E62DE9FC5F4FF00001DDE9CE
:1052E0000C6791469B4604008DF800100D4607FBA5
:1052F00006FA46D08C48543801608A484A1E143059
:105300008160C0E900210122C160C0E9041202F0FD
:1053100097FE85486C380068800101D50E208BE629
:1053200083480078022804D106024FEA592040EA57
:10533000CB59701EB0F5006F23D2064221D1304602
:10534000FFF7D4FBDFF8DCB1019058461021C0E92B
:1053500000614021CBF808100021CBF80C104FF46D
:105360008061CBF8101002F045FE1020FEF7ADFE74
:105370000028D4D1012F63D907FB06F8B8F1007FCC
:1053800001D3262058E66A48007818B1012801D0D8
:1053900002282BD166484026008901045846CBF8E4
:1053A00000103721C0E901160021CBF80C103101A3
:1053B0005C48CBF8101002F01DFE3720FEF785FE8A
:1053C0000028ACD158461721CBF80070C0E901166F
:1053D0000021CBF80C1031015248CBF8101002F02C
:1053E00009FE1720FEF771FE002898D14D481921BB
:1053F000C0E9009140214FF00009C0E902190901FC
:10540000016102F0F7FD1920FEF75FFE002886D14A
:1054100001984FF0FF360101424801271430066021
:10542000C0E90181C0F80C90C0E9049702F008FEC1
:10543000DFF8FCB09BF8010018B15D46012870D080
:10544000B5E0FAF740FF384F40F21A3825E04FF444
:10545000804002F054FEE8B1AAEB050020280DD2EE
:1054600081074FEA900100D0491C002003E004CCE2
:105470003A60401C2D1D8842F9D308E0002054F802
:1054800020103960401C0828F9D3203420356FF0F3
:10549000404602E0002E0DD0761E23484C380068AE
:1054A00010EA080FD3D0082002F029FE18B1082016
:1054B00002F02EFE79E0022002F021FE20B102204F
:1054C00002F026FE0220B7E5102002F018FE20B1FF
:1054D000102002F01DFE0520AEE54FF400742046BA
:1054E00002F00DFE20B1204602F012FE0720A3E5D7
:1054F0004FF4807002F003FE00B39BF8000018B177
:10550000012801D0022819D106480C22C0E90092D6
:105510004022C0E902291101016102F06BFD0C205B
:1055200008E012E060130020802C0140006402407B
:1055300030000020FEF7C9FD0028C4D1FAF7C5FEEF
:1055400040F2FF5002F0E4FD31E085F80390AF70C7
:1055500085F80490A748016840F21A3211430160AF
:10556000414640222046FFF788FAA24810380168D9
:1055700041F00801016030469F4900E0401E0A6882
:10558000120102D40028F9D100E018B9FFF7EBF9B5
:105590000BE0761E287908B9E87820B12EB1E878BA
:1055A00028B1E87848E5002EF3D1042044E540F224
:1055B000FF5002F0ADFD6846FFF7D9FC00288BD103
:1055C0009DF800100729F6D00629F4D034E52DE91E
:1055D000F0414FF4807002F092FD864C874D4CF202
:1055E0003A3610B3A878002101280ED0E97081481E
:1055F000001F016841F4807101602068B0432060A1
:1056000001202871E878BDE8F0817D480C22C0E9CE
:1056100000124022C0E902211101016102F0EAFCFE
:105620000C20FEF752FDE870E1E7022002F067FD72
:1056300040B1022002F06CFD2068B04320600220DF
:10564000E870E0E7082002F05AFD40B1082002F0BF
:105650005FFD2068B04320600420E870D3E720207D
:1056600002F04DFD40B1202002F052FD2068B04311
:1056700020600620E870C6E7102002F040FD40B12F
:10568000102002F045FD2068B04320600520E8703E
:10569000B9E74FF40077384602F031FD0028B2D068
:1056A000384602F035FD2068B04320600720E870DE
:1056B000A9E78CE710B5040019D05048008901040F
:1056C0004F4801600D214160402181600021C1608F
:1056D0004FF48061016102F08DFC0D20FEF7F5FCB6
:1056E000002803D1434928390968216010BD2620CC
:1056F00010BD08B5002000906846FFF7DBFF08B139
:10570000FF2008BD0098C0F3432008BD2DE9FC47E9
:105710000027CD0D4E028046810791464FF4007060
:105720001BD00024824615E06002821945EBE0732D
:105730003348CDF800A000F1A800FFF7E0F93049A8
:1057400007465246A831404619F08FFD641C08F503
:105750000078E4B24C45E7D30AE0B9F1010F0AD072
:10576000CDE9000932462B464046FFF7D3FA0746FB
:105770003846BDE8FC87009032462B464046FFF78E
:10578000BEF9F4E72DE9FC470746CD0D4E029046E1
:105790000020BA074FF400711AD00024894614E0A3
:1057A00017484A463946A83019F05FFD6002821951
:1057B00045EBE0731248CDF8009000F1A800FFF728
:1057C0001BFC641CE4B207F500774445E8D3D0E73E
:1057D000B8F1010F07D0CDE9001832462B46384604
:1057E000FFF779FDC5E732462B4638460091FFF7B3
:1057F00003FCBEE73C2C0140006402403000002066
:10580000601300201CB50121022001F0B6FA4FF40C
:105810004070012400908DF8044000208DF80600AF
:1058200003208DF805008DF8074069467C4800F09C
:105830007DFE7C48C0F8A042C0F8A4421CBD70B5F3
:105840007748016821F440210160016841F480211A
:105850000160744C0120C4F8A402C4F8A002042022
:1058600004F5287400F0B1FC00256560042000F008
:10587000ACFC256070BD6A4810B5016821F4402178
:105880000160016841F480210160664C0020C4F889
:10589000A002C4F8A402042004F5287400F095FCCA
:1058A000012020606060BDE81040042000F08DBC45
:1058B00070B55B480024016821F440210160016853
:1058C0000160584D0126C5F8A462304600F07DFC09
:1058D000C5F8A062012000F078FC07E0641CE4B287
:1058E000FA2C03D9FFF7C7FF012070BDD5F82402B9
:1058F0000028F3D1C5F8A00270BD70B5494C002551
:10590000C4F8A0524648016821F4402101600168B2
:1059100041F480210160C4F8A452022004F52874E7
:1059200000F053FC01202060022000F04EFC2560B6
:1059300070BD70B53B4C0026C4F8A06238480168C1
:1059400021F440210160016841F4802101600125BA
:10595000C4F8A452022004F5287400F036FC256037
:10596000022000F032FC266070BD2DE9F0410546B2
:105970002B48016821F440210160016841F4802135
:105980000160284E0027C6F8A0723C464FF001087F
:10599000E809C6F8A4026806050E022000F015FC0E
:1059A000C6F8A082022000F010FCC6F8A072022007
:1059B00000F00BFC641CE4B2082CE9D3BDE8F081D4
:1059C0002DE9F047814616480024016821F4402162
:1059D000016001680160134E254627464FF001081B
:1059E000C6F8A072022000F0F0FBC6F8A0826006A4
:1059F000040ED6F8240208B1641CE4B2012000F0C1
:105A0000E4FB6D1CEDB2082DEAD3B9F1000F04D010
:105A1000FFF773FF2046BDE8F087FFF78AFFF9E73D
:105A200000040240008040422DE9FF410C46012164
:105A300005468F031E469046384601F0BCF9012109
:105A4000384601F0EAF90021384601F0E6F9ADF8F0
:105A500004600020ADF80040ADF806000220A04C24
:105A60000290ADF80250ADF80C806946204602F075
:105A700047F901220221204602F039FA012120468D
:105A800002F0C0F9BDE8FF811FB581F48071ADF867
:105A90000010ADF80200ADF804300020ADF80600AB
:105AA0000220904C0290ADF80C206946204602F08E
:105AB000E6F901221146204602F019FA012120469A
:105AC00002F0A0F91FBD70B500240A21B0FBF1F06F
:105AD000854D04EB840135F81110814203D0641C1C
